:020000000C945E
:1000020081000C9400000C9400000C9400000C94ED
:1000120000000C9400000C9400000C9400000C945E
:1000220000000C9400000C9400000C9400000C944E
:1000320000000C9400000C9400000C9400000C943E
:1000420000000C9400000C9400000C9400000C942E
:1000520000001027E80364000A00010000100001FC
:1000620010000100FEFDFBF7065B0054696354615A
:1000720063546F652047616D650A50726573732022
:100082004F4E20746F2053746172742E2E2E0047CF
:10009200616D652053746172747320696E3A2564D0
:1000A20000506C6179657220582077696E73210067
:1000B200506C61796572204F2077696E7321004917
:1000C20074732061204472617721210080C0040092
:1000D200D40166000200EC016A00010060016C00BC
:1000E200240061016D000F008501A3000F0094013F
:1000F200B2000D00A301C1000200EE01CE0000001B
:10010200F894EE27ECBBF1E0FBBFEBBFE5BF8DE05F
:10011200A2E0BB27ED938A95E9F780E094E0A0E6A0
:10012200ED930197E9F7E0EDF0E085919591009765
:1001320061F0A591B59105901590BF01F001059070
:100142000D920197E1F7FB01F0CFEFE5EDBFE4E09F
:10015200EEBFC0E6D1E00C94ED01AA24BB24E4E09A
:10016200F0E0AE16BF0694F56F01A4EDB1E0AA0D62
:10017200BB1DEC91E5BBEFE0E4BB9C9902C0CC2433
:10018200DD249D9903C0E1E0F0E06F019E9903C078
:10019200E2E0F0E06F019F9903C0E3E0F0E06F015D
:1001A200E4E0F0E0EC15FD0549F09C9BFECF9D9B41
:1001B200FECF9E9BFECF9F9BFECF0895A5E0B0E0B1
:1001C2000E94C505F50131965F01C9CFC6CF44240F
:1001D20055246624772488249924E8EDF1E0FA93E3
:1001E200EA93A0E6B1E00E941A05AA24BB240E9469
:1001F20040058CF4CC24DD240E94450544F40E9481
:100202004A050E945805F60131966F01F5CFF501B6
:1002120031965F01ECCFAA24BB240E945D0534F421
:100222000E946205F50131965F01F7CFAA24BB2433
:10023200CC24DD240E94E202A1E6B1E00E941E036A
:100242000E946A050E9476051C97D1F70E94E2027D
:10025200E3E0F0E05F0100240A140B04FCF4E8ED93
:10026200F1E0FA93EA93E1E9F0E0FA93EA93F50117
:100272000E94DC050E94F60584E00E94E6042896AE
:10028200A8EDB1E00E941E03A4E6B0E00E94C505FD
:100292000E94E202F50131975F01DDCF0E947B05EA
:1002A20008950E94E202AA24BB240E94400544F55C
:1002B200CC24DD240E944505FCF4CA92AA2D0E949A
:1002C200CE020E944A050E94EE05E130A0E0FA0744
:1002D20011F4A8E50BC00E944A050E94EE05EF3F0B
:1002E200AFEFFA0711F4AFE401C0ADE20E94F702EA
:1002F200F60131966F01DECFF50131965F01D5CF60
:100302000895AA24BB240E945D0534F40E9462056C
:10031200F50131965F01F7CFAA24BB240E94400564
:100322000CF059C0CC24DD240E9445050CF04FC0CE
:100332000E948205EA0FFB1FCF01608171810E943A
:100342004A050E948805F5013396A2ECB1E0EE0F52
:10035200FF1FEA0FFB1FCF0160817181F601A6E04A
:10036200B0E00E94E605E055FE4FDF01F501EE0F19
:10037200FF1FAE0FBF1F0E948805CA14DB0471F471
:100382000E944A050E94EE05A091CE01B091CF01D4
:10039200EA0FFB1FE093CE01F093CF01F601EA0DC5
:1003A200FB1DE230A0E0FA0771F40E944A050E94A8
:1003B200EE05A091D001B091D101EA0FFB1FE093AD
:1003C200D001F093D101F60131966F01ADCFF50165
:1003D20031965F01A3CF0895EFEFE5BBEFE0E4BBF9
:1003E200E0E0EBBBEFEFEABBA4E10E944003EFDEEB
:1003F20058DF082C092809F069C0AFDEE3E0F0E01D
:10040200EA15FB0519F0EC15FD0509F41EC00E9462
:100412004A050E94EE053097C1F4042C052829F400
:100422000E944A05E1E0F0E004C00E944A05EFEFB5
:10043200FFEFED93FC93F2010E94E1054E2E55244D
:100442000E947B05F30131963F01F5010E94D70519
:10045200EC0DFD1DE093D201F093D3010E947605CD
:100462001D9709F4B4DE1DDF4CDFAA24BB240E94D1
:100472005D05F4F40E948205AE0FBF1F0E94EE05D7
:10048200E330A0E0FA0719F4E1E0F0E00CC00E94CA
:100492008205AE0FBF1F0E94EE05ED3FAFEFFA07D8
:1004A20019F4EFEFFFEF4F01F50131965F01DFCF56
:1004B200E9E0F0E0E615F70521F400240814090448
:1004C20009F003C0E2E0F0E04F0193CFE3E0EA93EA
:1004D200A3E00E94CE02E1E0F0E0E815F90519F48C
:1004E200A5E8B1E00FC0EFEFFFEFE815F90519F449
:1004F200A4E9B1E007C0E2E0F0E0E815F90521F473
:10050200A3EAB1E00E941E030E946A050E947605DA
:100512001D9709F45CDEF8CFFFCFFFE0FA95F1F703
:100522000895A1B3AF70A1BB919A9098F6DF929A09
:10053200F4DFA0B39298F1DF929AEFDF9298A7FDD1
:10054200F5CF0895A07FAB2BA2BB929A0E948E0298
:1005520092980E948E020895AA939198A1B3A76FD0
:10056200A1BBB2B3BF70A881EDDFA881A295EADF7B
:10057200919A0C947203929A0E948E02E0B392981E
:100582000E948E02E07F08950E948E02F4DFAE2F59
:10059200F2DF9198E295EA2B0895AA930E949202C3
:1005A200E881F0E0E251FE4FE081A981AE0F0E94A6
:1005B200AD02E981E093F201E881E093F301229632
:1005C20008950E949202A2E00E94AD020E9492024D
:1005D200ACE00E94AD020E949202A1E00E94AD0234
:1005E200E0E0E093F301E093F2010895AA93EF9320
:1005F200FF93A8816894AA3039F0E894E091F4015D
:10060200A091F201AE1758F0E091F301EF5FE09391
:10061200F301E0E0EA93A091F301BFDF56F0E0912D
:10062200F201EF5FE093F2017CDF909AA8810E94D1
:10063200AD02FF91EF910C947203BA93AA931A93AD
:10064200A981BA81ED91A983BA831E2FE03019F0F6
:10065200A12FCCDFF5CF188123960895AA27BB27B7
:100662001197F1F70895AA939198A1B3A76FA1BB2F
:10067200B2B3BF70A8810E94A302919A32C0AA931A
:1006820092989098E881E093F401E058E093F001A9
:10069200E881E054E093F1010E9490050E949005E8
:1006A2000E949005DBDFA0E2DEDFD8DFA8E20E9435
:1006B2009505A4E00E949505A5E80E949505A1B3C1
:1006C200AF70A1BB919A0E94C502E53011F0E0E043
:1006D20008C00E949202A6E00E94AD020E94E202BD
:1006E200E1E021960895BA93AA931A930A93AA81F4
:1006F200BB8112960E94EE05309759F1AA81BB8107
:1007020014960E94EE058F01309761F00230E0E00E
:100712001E0798F0F80131978F01AA81BB811496C8
:10072200ED93FC93AA81BB811296ED91FD913196D6
:10073200FE93EE933197AC81A083AA81BB810E9484
:10074200EE05FF232AF0ED91FD913196FE93EE9393
:1007520006C0AA81BB81EFEFFFEFED93FC931981F5
:10076200088125960895BA93AA9326970E94FB05BD
:1007720010E0AC85BD850E945805EA89FB89319657
:10078200EA8BFB8B3197E4912E2FE03009F415C1EF
:10079200E12FE03039F4253211F411E002C00E9459
:1007A20099050AC1E130A9F4253219F40E9499058C
:1007B20002C112E040E000E02D3211F401E0FCC081
:1007C2002B3211F44BE2F8C0203211F440E2F4C0B3
:1007D20002C0E23039F450E013E0203311F4006833
:1007E200EBC003C0E33009F0E7C0203310F02A3336
:1007F20008F007C0AAE05A9F502DE22FE0535E0F87
:10080200DBC0E22FE33649F40E94A005E889F989AA
:10081200A481AA930E94A605CEC0E33741F40E94A8
:10082200A0050E94AC050E9427051E2F0AC0E037D2
:1008320061F40E94A0050E94AC050E9433051E2FA0
:10084200086002600F7730E034C0E43611F0E93618
:1008520011F4046002C0E53731F4E4E5F0E0EE8320
:10086200FF8315E00CC0E83511F4086003C0E837D7
:1008720009F0A1C0EEE5F0E0EE83FF8314E002FF91
:1008820014C00E94A0050E94B605AB85AA233AF4C3
:10089200EA85FB850E94D305EA87FB874DE240305B
:1008A20011F01F5F01C00B7F04C00E94A0050E94CF
:1008B200B60500FD11C0151778F407FF08C002FF46
:1008C20004C00B7F242F115001C020E301C020E29D
:1008D2000E9499055150EFCF312F01FF17C03030E0
:1008E200A1F003FF06C0EE81FF812591EE83FF8315
:1008F20005C0AE81BF812D91AE83BF830E94990551
:10090200503009F051503150EACF4BC020E3EE8114
:10091200FF810E94F205E887F987EE81FF81329616
:10092200EE83FF83E885F985AA85BB85AE17BF07ED
:1009320050F02F5FA885B985EA85FB85EA1BFB0B82
:10094200EA87FB87EFCF2A3328F003FF02C0295F33
:1009520001C0295D04FD1AC0213320F4A885B985A0
:10096200119709F409C0531710F000FF01C013C01A
:1009720020E207FF0BC020E3006102FF07C00B7FEC
:100982004A930E94A605503009F051500E949905E1
:10099200503009F051503150A885B985129708F0AE
:1009A200B5CF00FF08C0503031F05150E0E2EA9379
:1009B2000E94A605F8CF10E0E0CEAC85BD850E946E
:1009C200EE050E94020664960895FF92F82E26977D
:1009D2000E94FD050E94BE05309719F4EFEFFFEF6C
:1009E20023C0DE0116960E94CF058D010E94BE052E
:1009F200EE83FF83E0E0E887E987DE011A960E9432
:100A0200CF050E94EE05FA93EA931A930A93E4E75C
:100A1200F3E0FA93EA93DE011A96A5DE9F01AE8116
:100A2200BF81E0E0EC93F9010E9404062A96FF9050
:100A32000895BA93AA93E991F991A991B991CD0137
:100A420061916D936623E1F7FC010895BA93AA932D
:100A5200A991B991EE27FF276D91662311F0319686
:100A6200FBCF0895BA93AA93AA27BB27E991F991DC
:100A72000590002011F01196FBCFFD010895E3E0EF
:100A8200F0E0AE16BF060895E3E0F0E0CE16DF0612
:100A92000895F501A6E0B0E00E94E605E055FE4F9C
:100AA200DF01F601EE0FFF1FAE0FBF1F0895E0E05A
:100AB200F0E0ED93FC930895E8E0F0E0AE16BF0697
:100AC2000895F501A2ECB1E0EE0FFF1FAE0FBF1FBC
:100AD200EECF0E94AE00F5010E94D705EC0DFD1D80
:100AE200E093D201F093D3010895A091D201B09185
:100AF200D3010895ACEEB1E0A40DB51DEC91EBBBB2
:100B02000895F501A2ECB1E0EE0FFF1F08950E94D7
:100B1200EE05E60FF71FDC01ED93FC9308950E94AA
:100B22002F03A0E30C9434030E94AD020C942F0314
:100B32002A93AD85BE85EF85F88909950895E889E0
:100B4200F9893497E88BF98B0895AD85BE85EF85D9
:100B5200F88909950895A889B98914960E94EE0525
:100B6200EE83FF83AE81BF810895A889B989149667
:100B72000E94EE05EA87FB870895DE011C960E941B
:100B8200CF050E94EE050895109639F0A89580EDE4
:100B920097E00197F1F71197C9F708950024AF0D77
:100BA200B01D0895F195E195F0400895EE0FFF1FF5
:100BB200EE0FFF1F08956F2F660F660B762F0895B5
:100BC200EF2BE1E009F0E0E00895FA9FF02DEB9FB2
:100BD200F00DEA9FE02DF10D0895ED91FC91119732
:100BE20008950590F491E02D08957A936A93FA930B
:100BF200EA9308955A934A933A932A931A930A933B
:100C020008955D814C813B812A8119810881089573
:00000001FF
